:020000020000FC
:100000003CC01895189506C0189518951895189520
:10001000189518950F930FB70F93CF93DF931F93F6
:10002000839531FD0AC006B7009506950F778017B6
:1000300048F088273260C29805C0843018F08827BD
:100040003D7FC29A30FF05C093959B3010F09927F1
:100050003E7F1F91DF91CF910F910FBF0F911895A8
:100060008C8C8C8C8C8C8C8C8C8C4D7FB3DAFF8C34
:100070008C8C8C8C8C8C8C8C8C8CE0E6F0E000274B
:100080000193F030E9F7E03AD9F7EE27FF27EEE1E8
:10009000FF27EA95F083E9F70FE90DBF02E009BFFA
:1000A00004E007BB03E80FBD03E003BF04E008BBA7
:1000B0000027789406B3027019F405E007BB02C06C
:1000C00004E007BB30FD12C006B3007139F43160A3
:1000D000739575300CF40AC074E008C006B308705C
:1000E00029F431607A9508F001C070E0E5E3F0E0B2
:0E00F000072FE00F1127F11F049106BFDBCF91
:00000001FF
