:020000020000FC
:02000000F0C04E
:0200040018954D
:02000800189549
:02000C00189545
:02001000189541
:0200140059C0D1
:02001800189539
:02001C00189535
:02002000189531
:0200240018952D
:02002800189529
:02002C00189525
:02003000189521
:0200340018951D
:02003800189519
:02003C00189515
:0200400025C0D9
:0200440018950D
:02004800189509
:02004C00189505
:02005000189501
:020054001895FD
:020058001895F9
:02005C001895F5
:020060001895F1
:020064001895ED
:020068001895E9
:02006C001895E5
:020070001895E1
:020074001895DD
:0200780075C051
:02007C0049C079
:020080001895D1
:020084001895CD
:020088001895C9
:10008C000F930FB70F93CF93DF930196903048F0F7
:10009C008C3938F0306180E090E01395143009F41D
:1000AC0010E030FF05C023952B3510F022273E7F42
:1000BC00DF91CF910F910FBF0F9118950F930FB741
:1000CC000F9306B300950871D9F030FD15C006B337
:1000DC00007149F4316001E0F00E05E0F01660F0BB
:1000EC0004E0F02E09C006B3087031F4316001E071
:1000FC00F01A08F001C0FF240F910FBF0F91189553
:10010C003160FACF2F93DF93CF930F930FB70F93E9
:10011C00009111012091120135FD08C0021731F434
:10012C0020919A002F7D20939A000FC0C9E0D1E056
:10013C00C00F2227D21F288120939C003F7D03955E
:10014C00083008F00027009311010F910FBF0F9199
:10015C00CF91DF912F9118952F93DF93CF930F931E
:10016C000FB70F93222700919B0002FD2F5F03FD19
:10017C002F5F04FD2F5FC8E0D1E00881020F0883D8
:10018C0000919C00203009F00FEF0D93C0E0D1E0FE
:10019C002796CA17DB0714F4A0E0B1E034600F9186
:1001AC000FBF0F91CF91DF912F9118954D7FB3DA3F
:1001BC00FF009201950198019B019E01A101A401F0
:1001CC00A701AA01AD01B001B301B601B901BC018F
:1001DC00BF01C201C501E0E0F1E000270193F1315C
:1001EC00E9F7E030D9F7EE27FF27EEE1FF27EA9594
:1001FC00F083E9F70FEF0DBF00E10EBF07B30F77E8
:10020C0007BB00270CE605BD002701E003BF002754
:10021C00016007BF00E00093980000E00093990094
:10022C0000E400939B0008EB00939A0006E0009317
:10023C009D0001E00ABF00E109BF0FEF04BB0ABB40
:10024C000027789400E807BB02C000E007BBE8EB8E
:10025C00F1E00F2DE00F0027F01F0491E02E34FF8A
:10026C003BC03F7E0FEF03BD0F2DC02FD02FCF70A3
:10027C00D07FD695D695D695D6955D2F6C2F0E2D15
:10028C00C02FD02FCF70D07FD695D695D695D6953A
:10029C007D2F4C2F503108F06894603108F0689431
:1002AC00703108F06894403108F0689450300AF4CA
:1002BC00689460300AF4689470300AF468944030A2
:1002CC000AF4689435FD6894103091F01130A9F05F
:1002DC001230C1F01330D9F0B5CFCC0CEEEBF1E00D
:1002EC000027EC0DF01FC591D491FE010994AACF03
:1002FC0001E005BBDEF1C52EF0CF02E005BBE6F157
:10030C00C62EEBCF04E005BBBEF1C72EE6CF08E04E
:10031C0005BBAEF1C42EE1CF00EC0BBB93CF09EFC4
:10032C000BBB90CF04EA0BBB8DCF00EB0BBB8ACF82
:10033C0009E90BBB87CF02E90BBB84CF02E80BBBEF
:10034C0081CF08EF0BBB7ECF00E80BBB7BCF00E966
:10035C000BBB78CF08E80BBB75CF03E80BBB72CF98
:10036C0006EC0BBB6FCF01EA0BBB6CCF06E80BBBEB
:10037C0069CF0EE80BBB66CF0FEA0BBB63CF0FEB5D
:04038C000BBB60CF78
:00000001FF
