:020000020000FC
:1000000060C018953AC006C01895189518951895AF
:10001000189518950F930FB70F93CF93DF931F93F6
:10002000839531FD09C006B700950695801748F005
:1000300088273260C29805C0843018F088273D7F39
:10004000C29A30FF05C093959F3010F099273E7FEC
:1000500006B300950871083149F463956F3F30F09D
:10006000662732FF02C03B7F01C034601F91DF91E1
:10007000CF910F910FBF0F9118950F930FB70F935B
:1000800006B300950871C1F030FD12C006B30071CF
:1000900031F431607395753078F074E00DC006B3BB
:1000A000087031F43160715008F006C070E004C08F
:1000B0000F910FBF0F9118953160FACF4D7FB3DAD2
:1000C000FF00E0E6F0E000270193F030E9F7E03AC6
:1000D000D9F7EE27FF27EEE1FF27EA95F083E9F74E
:1000E0000FE90DBF02E009BF03E80FBD03E003BF46
:1000F00000E20BBF08E105BB04E007BB04E008BB5E
:100100000027789432FD07C006B3027021F407B3CC
:10011000016007BB03C007B30E7F07BBECEBF0E049
:0E012000072FE00F1127F11F049106BFEBCF50
:00000001FF
