:020000020000FC
:1000000052C018952DC006C01895189518951895CA
:10001000189518950F930FB70F93CF93DF931F93F6
:10002000839531FD0AC006B7009506950F778017B6
:1000300048F088273260C29805C0843018F08827BD
:100040003D7FC29A30FF05C093959B3010F09927F1
:100050003E7F1F91DF91CF910F910FBF0F911895A8
:100060000F930FB70F9306B300950871B9F030FDE9
:1000700011C006B3007131F431607395753050F0E2
:1000800074E008C006B3087029F43160715008F0BC
:1000900001C070E00F910FBF0F9118953160FACF3A
:1000A0004D7FB3DAFF00E0E6F0E000270193F03087
:1000B000E9F7E03AD9F7EE27FF27EEE1FF27EA95C7
:1000C000F083E9F70FE90DBF02E009BF04E007BBC9
:1000D00003E80FBD03E003BF00E20BBF08E105BB6F
:1000E00004E008BB0027789406B3027019F405E019
:1000F00007BB02C004E007BBE0E5F0E0072FE00F1C
:0A0100001127F11F049106BFEFCF95
:00000001FF
